:020000040000FA
:10000000005B00204D030000550300005703000073
:10001000590300005B0300005D03000000000000C6
:100020000000000000000000000000005F0300006E
:10003000610300000000000063030000650300008E
:10004000B50900000D0A0000FD0C00006703000068
:1000500067030000670300006703000067030000F8
:10006000B50C000067030000670300006703000091
:1000700067030000670300006703000067030000D8
:1000800067030000670300006703000067030000C8
:1000900067030000670300006703000067030000B8
:1000A00067030000670300006703000067030000A8
:1000B000670300006703000000000000000000006C
:1000C0006703000067030000670300006703000088
:1000D0006703000067030000670300006703000078
:1000E00067030000670300006703000000000000D2
:1000F000000000006703000000000000670300002C
:1001000000000000000000000000000000000000EF
:1001100000000000000000000000000000000000DF
:1001200000000000000000000000000000000000CF
:1001300000000000000000000000000000000000BF
:1001400000000000000000000000000000000000AF
:10015000000000000000000000000000000000009F
:10016000000000000000000000000000000000008F
:10017000000000000000000000000000000000007F
:10018000000000000000000000000000000000006F
:10019000000000000000000000000000000000005F
:1001A000000000000000000000000000000000004F
:1001B000000000000000000000000000000000003F
:1001C000000000000000000000000000000000002F
:1001D000000000000000000000000000000000001F
:1001E000000000000000000000000000000000000F
:1001F00000000000000000000000000000000000FF
:10020000DFF80CD000F02AFB0048004701A70000EF
:10021000005B002030B4044654E8000F0D4644E86B
:100220000053002BF8D1156030BC704730B4044641
:1002300054E8000F40EA010544E80053002BF7D1D1
:10024000156030BC704730B4044654E8000F00EA33
:10025000010544E80053002BF7D1156030BC70470E
:1002600030B4044654E8000F80EA010544E8005326
:10027000002BF7D1156030BC704730B4044654E809
:10028000000F00EB010544E80053002BF7D1156087
:1002900030BC704730B4044654E8000FA0EB0105B1
:1002A00044E80053002BF7D1156030BC70470000C4
:1002B00030B4044654E8000F0D4644E80053002BC8
:1002C000F8D1156030BC704730B4044654E8000FD4
:1002D00040EA010544E80053002BF7D1156030BC1B
:1002E000704730B4044654E8000F00EA010544E8C2
:1002F0000053002BF7D1156030BC704730B4044672
:1003000054E8000F80EA010544E80053002BF7D1C0
:10031000156030BC704730B4044654E8000F00EB61
:10032000010544E80053002BF7D1156030BC70473D
:1003300030B4044654E8000FA0EB010544E8005334
:10034000002BF7D1156030BC70470000064880478D
:1003500006480047FEE7FEE7FEE7FEE7FEE7FEE7AA
:10036000FEE7FEE7FEE7FEE7AD0A0000010200003F
:100370002DE9F05F0546002092469B4688460646DA
:10038000814640241BE0284641464746224600F06D
:100390009CF853465A46C01A914110D3114618464C
:1003A000224600F016F82D1A67EB01084F46224648
:1003B0000120002100F00DF817EB00094E41201E2E
:1003C000A4F10104DFDC484631462A464346BDE835
:1003D000F09F202A04DB203A00FA02F10020704747
:1003E0009140C2F1200320FA03F319439040704773
:1003F000004870472C0E01000649074A0868504320
:1004000043F239021044086040087047014908600F
:1004100070470000B40200206D4EC64140EA01035F
:100420009B0703D009E008C9121F08C0042AFAD2AA
:1004300003E011F8013B00F8013B521EF9D270476E
:10044000D2B201E000F8012B491EFBD27047002216
:10045000F6E710B513460A4604461946FFF7F0FFC3
:10046000204610BD421C10F8011B0029FBD1801A48
:10047000704730B504460020034600E05B1C934201
:1004800003D2E05CCD5C401BF8D030BD034611F8D0
:10049000012B00F8012B002AF9D11846704730B51E
:1004A0000B46014600202022012409E021FA02F532
:1004B0009D4205D303FA02F5491B04FA02F52844CC
:1004C000151EA2F10102F1DC30BD202A04DB203A26
:1004D00021FA02F00021704721FA02F3D040C2F164
:1004E000200291400843194670472DE9FE4F80468F
:1004F00081EA0300C00F0C46009021F0004123F078
:100500000045B8EB0200A94105D24046214690467D
:100510001C460B46024623F00040104347D0270DEF
:10052000C7F30A00C3F30A510290401A0190402811
:100530006BDAC3F3130040F4801B0098924620B19D
:100540000023D2EB030A63EB0B0B01985946C0F171
:1005500040025046FFF73DFF06460D4650465946BD
:10056000019A00F08DF910EB08006141002487EA40
:10057000115284EAE7731A4340D0009A62B3019A99
:10058000012A4FEA075215DC001B61EB02014FF014
:10059000004202EA0752CDE90042001C41F58011F9
:1005A00032462B4600F08DF903B0BDE8F08F40468F
:1005B0002146F9E7001B61EB0201001C41F58013A5
:1005C00000185B412018A2F5001747EB030140EA31
:1005D000D570B6196D4111E06D084FEA360645EA4F
:1005E000C0754FEA0752001B61EB0201001C41F588
:1005F000801149084FEA30000019514132462B461C
:1006000003B0BDE8F04F00F04DB900980122400062
:100610000023D0EB020263EBE073009821464FEA1F
:10062000E074B8EB000061EB0401E9E783F00043FC
:100630005BE781F0004158E72DE9FE4F81EA0304B2
:1006400004F0004421F0004100944FF0000B23F02F
:10065000004350EA01045ED052EA03045BD0C3F3C6
:100660000A54C1F30A552C44A4F2F3340194A0FBBC
:100670000254C1F3130141F48011C3F3130343F493
:10068000801301FB024400FB034E840A970A44EAEC
:10069000815447EA8357A4FB076802958D0A05FB3E
:1006A00007854FEA932C04FB0C542705029D4FEA63
:1006B000065847EA1637B5EB08056EEB070C870EB0
:1006C000920E47EA811742EA8312A7FB0201B6EBBA
:1006D0000B0164EB00042B0D43EA0C335E1844EB72
:1006E0001C50DA465146E7FB0201C5F313044FEAFA
:1006F0000B3343EA14534FEA0432019C43EA0603E6
:10070000A4F10C040294009CCDE900B400F0D9F8E7
:1007100003B0BDE8F08F00200146F9E72DE9F04D68
:1007200081EA030404F0004B21F0004514464FF029
:10073000000A23F0004150EA050220D054EA0102E9
:100740001DD0C5F30A570246C5F31303C1F31300C6
:10075000C1F30A5640F4801543F48013A7EB060852
:10076000101BD64608F2FD3873EB050002D308F1E2
:10077000010801E092185B41B8F1000F03DA002094
:100780000146BDE8F08D00204FF4801106468446F6
:100790000EE0171B73EB050705D3121B63EB050374
:1007A00006434CEA010C49084FEA300092185B41BD
:1007B00050EA0107EDD152EA030012D082EA0400A8
:1007C00083EA0501084305D0101BAB4106D2012284
:1007D000002306E000224FF0004302E06FF0010228
:1007E00053101AEB06004CEB085110EB0A0041EBDA
:1007F0000B01BDE8F04D00F055B8C1F30A52C1F34A
:10080000130140F2FF3341F480119A4202DA0020D2
:100810000146704740F233439A42A2F2334202DC6F
:100820005242FFF752BEFFF7D4BD000030B5041EA0
:1008300071F1000404DB4FF00044404264EB01011D
:10084000141E73F1000405DB1C464FF000435242B6
:1008500063EB0403994208BF904230BD064C074D3C
:1008600006E0E06840F0010394E807009847103480
:10087000AC42F6D3FFF7C8FC481E0100681E010019
:10088000202A06DBCB17203A41FA02F043EAE07354
:1008900006E041FA02F3D040C2F120029140084341
:1008A0001946704710B5141E73F1000408DA401C95
:1008B00041F1000192185B411A4301D120F001007F
:1008C00010BD2DE9F04D92469B4611B1B1FA81F26F
:1008D00002E0B0FA80F220329046FFF77AFD04463B
:1008E0000F4640EA0A0041EA0B0153465A460843C4
:1008F00013D0114653EA010019D0C8F14002504606
:10090000FFF7E3FD05460E46504659464246FFF7BF
:1009100060FD084305D0012004E020463946BDE8CB
:10092000F08D0020054346EAE0762C4337430A98D1
:100930006305E40AA0EB08000022FD0A44EA4754DC
:100940000A3002D500200146E9E701051019694186
:10095000DDE9084500196941BDE8F04DA2E770B531
:100960008C1810F8015B15F0070301D110F8013B5A
:100970002A1106D110F8012B03E010F8016B01F8E1
:10098000016B5B1EF9D12B0705D40023521E0DD439
:1009900001F8013BFAE710F8013BCB1A921C03E087
:1009A00013F8015B01F8015B521EF9D5A142D8D3BF
:1009B000002070BD2DE9F0414FF4807738460AF0F1
:1009C000E9FB0124104EA50748B138460AF0E9FBBF
:1009D0000120C5F808037470002002F0CBFF4FF42B
:1009E000827738460AF0D6FB00280BD038460AF04A
:1009F000D8FB0220C5F80803B470BDE8F04101201F
:100A000002F0B8BFBDE8F0819828002070B50E4D07
:100A10000C4CD5F80C01002618B1C5F80C6103F098
:100A20002BFAD5F8280100280BD0C5F82861207EC4
:100A300018B1BDE8704003F0E1B9BDE8704003F0C3
:100A400097B970BDC03A00200010004000F060B9B6
:100A500070B50E46144900EB400001EBC00514468A
:100A6000E86A183520B101280FD0022805D113E01B
:100A7000284600F081F9A04201D2002411E022466C
:100A80003146284600F0B0F90BE0284600F074F932
:100A9000A042F4D20446F2E73146284600F077F946
:100AA0000446204670BD0000FC2D002030B54FF0FC
:100AB00080500022D0F830110123082902D1D0F84B
:100AC000344114B1082909D00BE04FF08041C1F83E
:100AD0000C21C1F8102168490A6005E0D0F83441C2
:100AE00014B1082957D059E064490968644C216061
:100AF0006249091D0968241D21606049083109689F
:100B0000241D21605D490C310968241D21605B4969
:100B100010310968241D2160584914310968241DC9
:100B20002160564918310968554C203421605349D9
:100B30001C310968241D2160504920310968241D99
:100B400021604E4924310968241D21604B49283118
:100B50000968241D216049492C310968241D216040
:100B6000464930310968464C4034216043493431AC
:100B70000968241D2160414938310968241D21601C
:100B80003E493C310968241D21603C4940310968D7
:100B9000241D216005E0D0F8344114B1082904D0A7
:100BA00006E0394C3749216005E0D0F8344114B1F2
:100BB000082904D006E0354CFB21216005E0D0F87F
:100BC000344114B1082908D00AE090F8584230485E
:100BD000016864F30301016005E0D0F8344114B109
:100BE000082905D00EE02B494FF40070086002E0A0
:100BF000D0F8340130B928480168C90702D06FF035
:100C0000010101602548016841F470010160BFF3F2
:100C10004F8FBFF36F8F4FF01021D1F800020028E3
:100C200003DBD1F80402002822DA1D4C23601D48A2
:100C30000368002BFCD01223C1F800320568002D98
:100C4000FCD0C1F8043201680029FCD022600168A0
:100C50000029FCD0BFF34F8F10487C380168124A3E
:100C600001F4E06111430160BFF34F8F00BFFDE766
:100C70000F490E48086030BD3805004004040010DC
:100C800020C50040488103008C56004018F5004004
:100C9000E40E0040409602400004004088ED00E071
:100CA00004E5014000E401400400FA050090D0038F
:100CB000140100202DE9F04700250E4C04274FF4C5
:100CC000A078BE034FEA050908EB850006FA05F196
:100CD00022584AB1D4F804230A4205D044F80090BF
:100CE000054A5168126890476D1CEDB2BD42EBD3C6
:100CF000BDE8F08700800040F03A00200348007F04
:100D000008B10EF025BC0EF08BBB0000C0390020EE
:100D100010B5124C02202061606111A0A06104F1A5
:100D20007800E0614FF4007020620020A0626062F1
:100D30000BA1A164E06204F51E71E1641021A065BD
:100D4000C4E91410E06509A1E01DFFF79FFB08A1AD
:100D50002046FFF79BFB2020A07110BDFC2D00203A
:100D60005465726D696E616C00000000525454004D
:100D700053454747455200000269C1688A4203D87B
:100D80008068401A104400E0501A401E70472DE958
:100D9000F047C4681746894606464FF00008306998
:100DA000A04201D9051B02E0B168201A0D1AB068F3
:100DB0006D1E001BA84200D80546BD4200D33D462B
:100DC00070682A4620444946FFF728FBB0687F1B1D
:100DD0002C44A844A944A04200D10024F460002F70
:100DE000DDD14046BDE8F0872DE9F0410446884654
:100DF000D4E90207C51BE168606816460844B5429D
:100E000006D94146FFF70AFBB819E060BDE8F0815A
:100E10002A464146FFF702FB761B08EB05013246E6
:100E20006068FFF7FBFAE660F0E700007CB5491E5A
:100E30001C461546CDE90001044B6A46214628466A
:100E400000F0C8F8009A002111707CBD0317000063
:100E500002E008C8121F08C1002AFAD17047704783
:100E6000002001E001C1121F002AFBD170470000E1
:100E70002DE9FF5FDDE90220010DDDF838B0024306
:100E800018D044F61050A1F2FF3141430D140F98D1
:100E9000012820D0A5EB0B00401C5FEA000A4FF0B0
:100EA0000004474EDFF81C91A046504616D5CAF103
:100EB000000728E00F98012443A2012808D0002150
:100EC00000980F9BC0E90021C0E90243BDE8FF9FE5
:100ED0006FEA0B01F4E7CBF10000DEE7074612E012
:100EE000F80707D02246334640464946FFF7A4FBA1
:100EF000804689462246334610461946FFF79CFB3A
:100F000004460E467F10002FEAD1DDE90201BAF156
:100F1000000F42464B4602DAFFF78EFB01E0FFF777
:100F2000FDFB04460E460022284BFFF77FFC03D84A
:100F30004FF0FF30014607E00022254B20463146A6
:100F4000FFF7D3FAFFF759FC102409E0002C0ADB65
:100F50000A220023FFF70CFA019B30321A55641E57
:100F600050EA0102F2D1641C019AC4F11103144445
:100F70000F9A012A03D0012208430DD10AE0084349
:100F800004D000204FF0110B0F9080E7A3EB0B056E
:100F90006D1E0DE05B4504DD4FF0000205F101051B
:100FA00004E003DA4FF00002A5F10105002AECD0BD
:100FB00000980F99C0E90231C0E9004586E70000BA
:100FC000000024400000F03F300000000000F0432B
:100FD0000000E03F2DE9FF4F95B09B46894606464D
:100FE00000250FE2252877D100242746F84A012161
:100FF000059400E0044316F8013F203B01FA03F09A
:101000001042F7D130782A2811D06FF02F033078B2
:10101000A0F13002092A16D8059A44F0020402EB26
:10102000820203EB42021044761C0590EFE759F868
:10103000042B0592002A03DA504244F40054059030
:1010400044F00204761C30782E2816D116F8010FD1
:1010500044F004042A280DD06FF02F023078A0F15C
:101060003003092B09D807EB870302EB4303C718AA
:10107000761CF3E759F8047B761C30786C280FD087
:1010800006DC4C2817D068280DD06A2814D104E05B
:10109000742810D07A280FD10DE044F400140AE02F
:1010A00044F4801401E044F440147278824202D186
:1010B00004F58014761C761C307866280BD013DC7F
:1010C000582877D009DC002875D04528F6D0462866
:1010D000F4D047281AD19DE118E0632835D0642860
:1010E00079D0652812D195E1702873D008DC672883
:1010F000F1D069286FD06E280DD06F2806D1B5E0E9
:1011000073282CD0752875D0782874D05A46179932
:1011100090476D1C75E1C4F30250022809D00328E2
:101120000DD0D9F8001004280DD00D6009F1040984
:1011300067E1D9F80010EA17C1E90052F6E7D9F8DB
:1011400000100D80F2E70D70F0E719F8041B8DF820
:10115000001000208DF80100EA46012003E059F854
:1011600004AB4FF0FF3061074FF0000102D40DE0F7
:1011700008F101018846B9420FDA8045F8DB1AF818
:1011800008100029F4D108E008F1010188468142E5
:10119000FADB1AF808100029F6D105985B46A0EB97
:1011A000080721463846179A00F094FA284400EBC5
:1011B000080507E04DE029E10DE01AF8010B5A4659
:1011C00017999047B8F10108F7D25B462146384697
:1011D000179A13E142E00A220092C4F302524FF040
:1011E000000A022A08D059F804CB032A4FEAEC710E
:1011F0000AD00DE029E02AE009F1070121F00702F9
:10120000F2E802C1914609E00FFA8CFC4FEAEC715A
:10121000042A03D14FFA8CFC4FEAEC71002907DA5B
:101220000A460021DCF1000C61EB02012D2202E0F4
:10123000220504D52B228DF80420012203E0E207C9
:1012400001D02022F7E7904659E00A2102E010225F
:101250000DE010214FF0000A00910BE010224FF03A
:10126000000A44F004040827009203E008224FF02B
:10127000000A0092C4F30252022A05D059F804CBA6
:101280000021032A08D009E009F1070121F0070233
:10129000F2E802C1914605E01FFA8CFC042A01D154
:1012A0000CF0FF0C4FF00008220728D5702806D05C
:1012B000009B83F0100353EA0A0305D00EE040229E
:1012C0008DF80420012208E05CEA010206D03022F9
:1012D0008DF804208DF8050002229046009B83F0D3
:1012E000080353EA0A030AD15CEA010201D162074A
:1012F00005D530228DF804204FF001087F1E5828B4
:1013000004D034A003900EA802900DE036A0F9E7B7
:1013100053466046009AFFF72BF884460398825C98
:101320000298401E029002705CEA0100F0D102981F
:1013300006A9081A00F1200A600702D524F48034B7
:1013400000E00127574502DDA7EB0A0000E000207E
:1013500000EB0A01009005984144401A0590E00313
:1013600006D45B462146179A059800F0B3F9054468
:10137000002706E001A85A46C05D179990476D1CEA
:101380007F1C4745F6DBE0030CD55B462146179AE8
:10139000059800F09FF9054404E030205A4617995B
:1013A00090476D1C0099481E00900029F5DC08E06C
:1013B000029802995A460078491C02911799904761
:1013C0006D1CBAF10001AAF1010AF1DC65E100002F
:1013D000092801003031323334353637383961620B
:1013E00063646566000000003031323334353637CF
:1013F00038394142434445460000000000F058F9A6
:101400000544761C307800287FF4ECAD19B02846EE
:10141000BDE8F08F620700D4062709F1070222F029
:10142000070CFCE80223E14603F000485FEA080CE1
:1014300002D00FF2702C0DE05FEA045C02D50FF2CF
:10144000682C07E05FEAC47C02D00FF2602C01E058
:10145000AFF2700C4FF0FF3823F00043CDF850C0CE
:1014600065280CD006DC452809D046281DD0472821
:101470003DD13DE0662818D067287ED138E00021B4
:10148000112F01DB112000E0781CCDE9000106A935
:101490000EA8FFF7EDFCDDE90F010E9A0391002184
:1014A000009207F1010A04914DE04FF000400097CF
:1014B000CDE9011006A90EA8FFF7DAFCDDE90F025D
:1014C00003920E9B11990022DDF80CA00093049268
:1014D00011B9791C00EB010AB7EB0A0004D4C0F182
:1014E000FF3007F1010A0490AAEB0700019044E0E5
:1014F000012F00DA01270021112F01DD112000E06A
:101500003846CDE9000106A90EA8FFF7B1FCDDE9D8
:101510000F010E9A0391002104910092BA4621070F
:101520000CD40399514500DA8A46BAF1010F05DD62
:10153000009AAAF10101515C302908D0B84202DAC0
:1015400010F1040F06DA0121CDE9011015E0AAF12E
:101550000101E9E7002805DC049901440491AAEBA4
:10156000000102E0411C514500DD8A460499401A01
:10157000401C01904FF000400290200704D40198D5
:10158000504501DBCDF8048000208DF84F00029813
:101590000DF14F07B0F1004F25D02B200E9002988F
:1015A0004FF0020800280CDA404202902D200E90E5
:1015B00007E00A210298FEF772FF3031029007F827
:1015C000011DB8F10001A8F10108F2DC0298002821
:1015D000EFD1791E0E980870307800F0200040F0AE
:1015E000450007F8020D12A8C01B00F10708149867
:1015F000007800B1012000EB0A01019801EBE071D5
:1016000005984144401A401E0590E00306D45B460D
:101610002146179A059800F05DF805441498007863
:1016200018B15A46179990476D1CE00324D55B46C4
:101630002146179A059800F04DF805441CE00498DF
:10164000002807DBDDE90301884203DD0098405CE8
:10165000179901E0179930205A469047049805F1F0
:101660000105401C04900198401E019004D12E20D9
:101670005A46179990476D1CBAF10001AAF1010A68
:10168000DDDC05E017F8010B5A46179990476D1CF1
:10169000B8F10001A8F10108F4DC5B462146179A75
:1016A0000598ABE62D0000002B0000002000000094
:1016B0002DE9F041044600251E461746880404D44F
:1016C00005E039462020B0476D1C641EF9D5284638
:1016D000BDE8F0812DE9F041044600251E46904604
:1016E000C80301D5302700E02027880404D505E091
:1016F00041463846B0476D1C641EF9D52846BDE802
:10170000F0814A68002A06D00A68531C0B601070EA
:101710004868401E4860704710B505F0F5F9BDE80F
:1017200010400BF04FBF00001CB504490968CDE91B
:101730000010684607F016FD1CBD000028070100D8
:101740002DE9F84F1F4C0646076AD4F8E85704F510
:10175000FE6004F5FD6410350DF098FCB7F801103B
:101760002980FA78AA7096F83000E87096F831006F
:101770002871D6E90E30C5E9023096F84000287489
:10178000AAB9ADF8001021680E4ED4E90E78D1E95F
:101790000C918A46103653206A46002109F072FBEC
:1017A000206890F82900022808D0C6E9129A06F0AD
:1017B000CDF92846BDE8F84F01F0F0BEC6E9127831
:1017C000F5E70000E830002010B515488AB0202267
:1017D000D0F8E84713496846FEF720FE04F13000D0
:1017E0000390801F0590801E079094F83800C0F386
:1017F000C0008DF8200008A8019094F82900032863
:101800000CD04B208DF808000421684609F06EFBCF
:101810000AB00420BDE8104006F0AABC4A20F1E757
:10182000E83000209C070100EC200BF02BBA0000F0
:101830000348FF2180F8001200F5DC7005F0D8BFE6
:10184000E830002010B5034C08F02EFE012084F88B
:10185000140210BDE830002070B5002418200CF0F0
:10186000C7FE0A4D00212861204609F041FA0CF01C
:10187000BFFE014628690F224161C47304740A70D7
:10188000BDE87040024909F041BB000000000020A3
:1018900049AE0000074810B590F8611821F010011A
:1018A00080F8611800200CF035FCBDE810400120E4
:1018B0000CF030BCE830002000780BF0E3B9E821F0
:1018C00002F06CB8164910B501F5DC728EB0538881
:1018D000ADF8003013788DF80230D2E90234CDE94A
:1018E0000234137C8DF81030D2E90632CDE906328D
:1018F00000788DF8200091F8E8018DF8210091F82A
:10190000E9018DF82200D1E97C02CDE90A0291F8C3
:10191000F8018DF83000684609F0B2F90EB010BD3C
:10192000E8300020704700000348FF2180F80012D3
:1019300000F5DC7006F020B8E83000202DE9F04119
:1019400004F034FC184E30460CF0FAFF0546174FF1
:1019500023E02C46294630460DF04CF80546207E03
:10196000410706D5207957F8201004F10800884770
:1019700010E0800711D5207957F8201004F10800F5
:101980008046884709492079103951F82020F021F4
:1019900040469047204604F047FC002DD9D1BDE8D1
:1019A000F04109F05DBB0000A834002070FC00008D
:1019B00070B50446084D04F0F9FB2C60207E40F021
:1019C00001002076296820F008000876BDE8704004
:1019D000012002F0B1BB0000A034002003494FF405
:1019E000005008600020091F086070470C05005077
:1019F000074810B5002180F81412E12002F000F829
:101A0000012002F0A9FBBDE8104006F09FB80000DD
:101A1000E830002010B506F099F8BDE8104000202D
:101A200001F0E6BF022001F0E3BF00000348FF2100
:101A300080F8001200F5DC7005F0CEBFE830002021
:101A4000144800B5D0F8E8078DB090F829108DF84B
:101A50000010D0E90C12CDE90212418DADF8021050
:101A600003218DF8101090F839108DF8181090F8A7
:101A70003A108DF81910D0E91012CDE9081290F83B
:101A800048008DF828000121684607F081FE0DB05E
:101A900000BD0000E8300020054890F8701700F500
:101AA000D060C1EBC10100EBC100483005F0B2BD10
:101AB000E830002030B5244D93B0A5F11000482245
:101AC000D0F8B04321496846FEF7A8FC94F82900F5
:101AD0009DF8011060F300018DF80110607D8DF814
:101AE000020014F8140F8DF803006088ADF80400AC
:101AF000D4E90101CDE90201B5F85600ADF81000B6
:101B0000A07D8DF82000E07D8DF82100D4E907014B
:101B1000CDE90A0194F824008DF8300020690E9078
:101B2000207B8DF83C002078022808D0D5E91C01E4
:101B3000CDE90601684605F099FF13B030BDB5F850
:101B40005A00ADF81800F5E7F830002030F9000031
:101B500070B50DF0F7F90D461049064691F81801D9
:101B6000E83101EB4014383408F0F8F8801B00230A
:101B700061EB05011A461B1A8A4108DAA2680023A4
:101B8000851A994102DA101AA06000E0A3600120D2
:101B9000E070BDE8704001F02BBF0000E83000208D
:101BA00010B50A4C94F81801E83404EB40100834DE
:101BB00090F8390002F098FCC4E9040120460DF0C9
:101BC0002DFABDE8104006200AF0B6BEE83000202D
:101BD000094910B501F1F00091F81821E83101EB45
:101BE00042110022096CC0E904120DF017FABDE899
:101BF000104006200AF0A0BEE830002070B5094D64
:101C0000D5F8B04305F56C752046A66805F096F941
:101C100094F82800207304F10C00B04700202860DD
:101C200070BD0000E8300020007802F019B80520EF
:101C300006F09EBA1CB5074C019002208DF80000FA
:101C4000684607F08FFA206805F078F900202060D8
:101C50001CBD000018390020E82002F001B8000087
:101C600000B58DB0418CADF8021010F8201F8DF832
:101C70000010D0E90212CDE90212017C8DF810109B
:101C8000417C8DF811100A490591817C8DF818105E
:101C9000C17C8DF81910D0E90612CDE9081290F830
:101CA00020008DF82800684605F04CFD0DB000BD01
:101CB000D576000002480021C0F8301870470000B7
:101CC000E830002070B50E48456818200CF090FCF4
:101CD0000C4C00212061284609F00AF80CF088FC21
:101CE000024620696021094B4261C17306491160B7
:101CF000536000210174BDE87040054909F006B940
:101D0000F4F7000000000020F9CDAB8967452301FE
:101D100049AE0000114910B591F8702701F5D06166
:101D2000C2EBC20201EBC201007891F878100229DF
:101D300009D001290BD061B1BDE81040084940F23B
:101D40009F1001F005BCBDE810400AF017BE04F07A
:101D500015FEBDE810400BF035BC0000E830002057
:101D6000BC1A01000B2006F003BA062006F000BAE8
:101D700010B502780D484FF6FF73D0F8E81701F15F
:101D800010000B828A7491F83920CA7491F83A20B5
:101D90000A75D1E91023C0E9022391F848100174B3
:101DA00001F0FCFBBDE8104005F0D0BEE83000209B
:101DB000042006F0DDB9072006F0DAB906F05EBAB5
:101DC00010B5064C04F108000AF09AF9A179491EF1
:101DD000A171002084F8AC0010BD0000503200203A
:101DE0000068002102F0C0BB0248FF2180F83115D5
:101DF00008F054B8E8300020016A49788B06016A7F
:101E00004A7802F00F01C2F3001201D506F01ABDA4
:101E100006F07ABD0068E22102F0A6BB10B50468A6
:101E2000A07BC0F3001200F00F01002006F03AFC86
:101E30002046BDE81040002102F096BB0179006801
:101E400002F092BB70B50546807B0D4CC00609D4EC
:101E5000A06820B10B494FF4A77001F079FB0D2069
:101E6000A56008E0E06820B106494FF4AA7001F0CF
:101E70006FFB0E20E560BDE8704006F079B9000008
:101E8000D83500202C1A010002F0AABB70B50B4D0A
:101E900000240DE0686804EB440100EBC100017907
:101EA000012901D0042901D106F052FC641CE4B2DE
:101EB000287800F00F00A042ECD870BD203600203A
:101EC0000068EB2102F050BB07490068D1F8F82404
:101ED00001F59E61904202D111F8420F01E011F824
:101EE000430F401C08707047E8300020EC2102F0DE
:101EF0003BBB000000B51249002287B0D1F8F8348E
:101F000001F59E61834202D181F8422001E081F80F
:101F10004320817B8DF80010C17B8DF80110017C7E
:101F20008DF80210D0E90612CDE9021290F82000D7
:101F30008DF81000684606F0B3FD07B000BD000044
:101F4000E83000200248FF2180F83115704700007A
:101F5000E830002070B50C4C94F8310504F59E640F
:101F600002F0FAFC0546FF2803D10849E42001F0FD
:101F7000EFFA04F8415F0020A07102F019FDBDE8FE
:101F8000704006200AF0D8BCE83000201814010088
:101F9000E22001F035BD000002480021C0F8001524
:101FA00070470000E830002070B5050004D11749E3
:101FB0004FF4857001F0CCFA154CAE68D4F80005EA
:101FC00004F59E6406F066FA206990F82900C007BF
:101FD00007D0012084F846002169497B09B984F8BB
:101FE000450036B1206990F82810017320690C3043
:101FF000B04700202061284603F0E8F8002804D00C
:10200000BDE870400C2006F09DB870BD18140100AA
:10201000E830002003480021C0F800150C2006F02D
:1020200091B80000E83000200348002180F8341502
:102030000C2006F09DB80000E830002070B5114C6F
:1020400094F8310504F59E6402F086FC0546FF28ED
:1020500003D10D49CC2001F07BFA04F8415F002048
:102060002071607102F0A4FC08200AF065FC0020D9
:1020700003F0ACF8002804D0BDE870400020FFF762
:10208000D3BF70BDE83000201814010005F05EBD1C
:1020900001480CF0FBBF0000D03300202DE9F047D1
:1020A000324CD0E9008304F53A7586B0994604F5C0
:1020B00036740CF047FFDFF8B4A007460E460AF16D
:1020C000100A94F838204FF470700021FEF781F95F
:1020D00001099AF879004FF0000A401C48430101B9
:1020E00011EB08014AEB0900C4E9021007F0F2FD08
:1020F00010EB080041EB0901C4E9000106F0EEF91C
:1021000038B1D4E902011A4A821841F1FF30C4E91A
:10211000022028460CF0BAFFD4E90201381A76EB07
:1021200001000CD3A068CDE90467CDE9021011A32A
:102130001C4AAF211CA0CDE900890CF05FF8D4E95E
:102140000210C91B60EB0600C5E9041085F818A051
:102150001E48E86128460CF061FF032006F008F8ED
:1021600006B0BDE8F04705F00DBD0000E8300020E6
:102170007CFCFFFF6274733A20256C752C20636130
:10218000705F656E643A20256C752C256C753B205C
:102190006375725F74696D653A256C752C256C7575
:1021A00000000000E41D0100705F6D656D2D3E6351
:1021B00061705F656E645F74696D65203E20637554
:1021C0007272656E745F74696D6500006539000038
:1021D00006F000B90448054AD0F8B81301F1080028
:1021E000097952F821100847E830002050FC00001F
:1021F000082005F0BDBF00000548F521D0F8B00368
:10220000417390F8281001730020FFF7F7BC00001D
:10221000E83000200548E621D0F8B003417390F87B
:10222000281001730020FFF7E9BC0000E83000200F
:102230000548E821D0F8B003417390F828100173E5
:102240000020FFF7DBBC0000E8300020E8200AF0A7
:1022500019BDE8200AF092BB0C484FF6FF72D0F887
:10226000E81701F110000A82E8228A7491F83920F7
:10227000CA7491F83A200A75D1E91023C0E9022303
:1022800091F84810017401F089B90000E83000208D
:102290000749C1F8B803027E42F001020276D1F884
:1022A000B80322F008010176012001F045BF0000CB
:1022B000E8300020017E41F00801017670470000FF
:1022C00030B50446056A007889B0032804D0124965
:1022D00040F27D2001F03CF920216846FEF7B7F876
:1022E000D4E90201CDE9000194F830008DF809002D
:1022F00094F831008DF80A00D4E90E01CDE904010B
:1023000094F840008DF8180068788DF80800684649
:1023100008F076FC09B030BD9019010010B503F04B
:10232000BBFEE92001F06CFBBDE8104005F00EBCDF
:1023300008B5EB208DF800006846FFF7EBFC08BD00
:102340000548EC21D0F8B003417390F828100173D0
:102350000020FFF753BC0000E830002010B507F064
:10236000E5FF08B107F0ECFFBDE8104009F05EBEE4
:1023700070B50CF0E7FD04460D460A2008F0BCF9E4
:1023800020184D410349C1E9C605BDE8704004F07D
:1023900077BD0000E8300020012005F0E9BE000014
:1023A0002DE9F041184D0CF0CDFDD5E90224161AA7
:1023B00064EB010407F0CCFC0027801B77EB0400E2
:1023C00004D3124940F2831001F0C2F807F082FCF6
:1023D000301A74EB010004D30C4940F2851001F06F
:1023E000B7F807F0B5FC301A64EB0704C5E90A0436
:1023F00085F830700648686305F118000CF00EFE91
:10240000BDE8F04105F0A2BB00340020C01C010073
:10241000ED60000005F09ABB10B5044C04F1180003
:102420000CF034FE012084F8480010BD0034002078
:1024300070B5124C09F052FF0CF084FDD4E904236E
:1024400005460E46801A994104D30D494FF4B670E3
:1024500001F07EF8D4E90410491B60EB0600C4E9E2
:102460000A10002084F830000648606304F1180068
:102470000CF0D4FDBDE8704005F084BB00340020B2
:10248000C01C01005539000005F0A4BF2DE9F04142
:10249000104E07F08BFF326C00241201171844EB2A
:1024A0000105C6E9027507F053FC3F1A65EB040508
:1024B0000CF048FD381A65EB0105C6E90A0586F8F7
:1024C00030400548706306F11800BDE8F0410CF09B
:1024D000A5BD00000034002065DF000038B50F48BE
:1024E000856818200CF084F80D4C002120612846E6
:1024F00008F0FEFB0CF07CF8014620695022416197
:10250000C27341F23422ADF800200A800021017428
:10251000BDE83840034908F0F9BC0000F4F70000BA
:102520000000002049AE00000549084601F5EF61B2
:10253000B0F872000001002205C10AF05FBA000085
:10254000E83000200AF05ABA10B50C4C0B49E531BE
:1025500014F8202FA1F17F00FDF760FF207A0849D1
:10256000401C2072054808F0E9F906494FF4804004
:1025700008600020091F086010BD0000E002002074
:10258000C5A700000C0500502DE9F047274F28484B
:1025900000257D70824603F05DFCDFF898904FF4D3
:1025A00080480446C9F8008009F1040635604628D1
:1025B00001D9462400E0ACB322461F49504603F03F
:1025C00015FC1D48B9786738621C80F8661000F168
:1025D00066010F46E530FDF721FF174802216738F5
:1025E0000B224175028341F23422C28200F8141F8B
:1025F000641C07610473017D491C0175417D21F054
:10260000060141F00101417505218175C5750A4832
:102610000A49673808F092F9C6F80080C9F80050F6
:10262000BDE8F087FFE701207870F9E7000000209F
:10263000780000200805005047030020C5A70000CF
:1026400010B511488AB02822D0F860410F49684679
:10265000FDF7E4FEE089ADF80000207C8DF8020073
:10266000607F8DF81400A07F8DF81500D4E9080173
:10267000CDE9060194F828008DF82000684604F0A2
:102680007FFC0AB010BD0000E8300020F80B01000C
:1026900010B58CB0174C302217496846FDF7BEFEC6
:1026A000D4F8E80790F829108DF80010418DADF8A6
:1026B0000210D0E90C12CDE9021290F838108DF812
:1026C000101090F839108DF8181090F83A108DF815
:1026D0001910D0E91012CDE9081290F848008DF8D1
:1026E0002800684604F08AF9012084F818080CB024
:1026F00010BD0000E8300020C007010002480021A2
:10270000C0F8B01370470000E830002010B503F0A7
:102710004FFABDE81040002001F06AB906F0A6BDEE
:1027200010B503480CF0B2FCBDE8104003F0F0BD5A
:102730007037002009480A4A90F87500C0EB001075
:1027400081020648002380F80838C0F80C2800F5FC
:10275000FE60C0E904130CF061BC0000E83000200A
:10276000F9D5000070B50C48C56818200BF040FF83
:102770000A4C00212061284608F0BAFA0BF038FF15
:102780000146206952224161C27301220A70BDE8EC
:102790007040034908F0BABBF4F7000000000020C5
:1027A00049AE0000E8200BF001B8F8200AF0FEBFA7
:1027B000F7200AF0FBBFF6200AF0F8BF10B5034877
:1027C0000CF064FCBDE8104005F0C0B9B035002045
:1027D00010B5FFF7F3FFBDE8104000200AF0E6BF98
:1027E0002DE9F041194CD4F8C07404F599642046E1
:1027F0000CF04CFC15484FF0000890F84B000F28E7
:1028000012D00CF09FFB05460E460BF0CFFA2A1AA9
:1028100066EB0106D7E9041008440101891A68EB48
:102820000600C4E9041003E078690101C4E9041852
:1028300084F818800648E06105F0A4F920460CF001
:10284000EDFBBDE8F04100200AF0B0BFE830002009
:10285000E1D70000FFF7B2BF2DE9F0410E4D284649
:102860000CF014FC0BF0A2FA06460F460AF084FFA7
:10287000361847EB01040CF065FB301A64EB0104D9
:10288000C5E90404002028760448E8612846BDE82C
:10289000F0410CF0C3BB0000B0350020F1D70000C0
:1028A00010B50AF0D1FF0AF0EFFFBDE8104004F0C8
:1028B0002BBA00000A48D0F88017496AC0F884177C
:1028C000FF2180F88817D0F8802700211175D0F8F3
:1028D0008027D36AD36180F8B817084605F048BC52
:1028E000E83000200248012180F8B8177047000046
:1028F000E830002070B5054605F0C0FC05F026F96B
:10290000124C04F5F26004F5F0640CF0BFFB0DB15D
:10291000287805E094F8380008B1002000E0EA20AB
:1029200084F83C00206890F8200008B90AF028FBE1
:10293000206890F82000012801D0022801D10AF077
:1029400099FFBDE870400F2006F0DEBCE8300020A3
:1029500010B505F019FC05F015F90AF095FF0AF01D
:10296000FFFA0E4C0CF0EEFAC4E9060120680021D3
:1029700090F828200120FDF72CFD401C4FF47071C9
:10298000A0FB01014FEA00114FF00000C4E908105C
:102990006072BDE8104009F047BF000068380020B1
:1029A0000A48D0F88017496AC0F88417FF2180F8D8
:1029B0008817D0F8802700211175D0F88027536B35
:1029C000936180F8B817084605F0D2BBE8300020C4
:1029D00010B505F0D9FB05F0D5F809F015FBA0B14D
:1029E0000C4800220C4980F8A827C0F8AC17014613
:1029F00000F5F26091F87510C1EB01118902C0E990
:102A00000412BDE810400CF009BBBDE810400AF00C
:102A100087BF0000E830002001D800000348FC21F7
:102A200080F8BC170F2006F06FBC0000E8300020D3
:102A300010B505F023FC0A4C04F110000CF026FB45
:102A4000227A01216068914088436060FA2084F80E
:102A50003C000AF00FFFBDE810400F2006F054BC08
:102A60006838002010B586B00AF00EFF0D48D0F887
:102A7000804724B90C4940F21E3000F069FD14F87B
:102A8000380F8DF8000060788DF80100D4E902015C
:102A9000CDE90201207C8DF81000684606F0B4FCF8
:102AA00006B010BDE83000204C1B01000848D0F8EB
:102AB0008017496AC0F88417FF2180F88817002121
:102AC00080F8B817D0F880070175084605F050BBAC
:102AD000E83000200F4930B4012281F8B8270146C0
:102AE0000C48D0F880371A7D93F82900824205D32C
:102AF00030BC09494FF46A7000F02ABD02EB420471
:102B0000D86A521C1A7500EB041030BC3022FDF755
:102B100085BC0000E83000204C1B010010B505F01A
:102B200033FB0AF091FE0AF0AFFE05F02BF8BDE88A
:102B300010400AF0F5BE00000A48D0F88017496A34
:102B4000C0F88417FF2180F88817D0F8802700216B
:102B50001175D0F88027D36AD36180F8B81708467A
:102B600005F006BBE83000200348E82180F8BC17D8
:102B70000F2006F0C9BB0000E830002070B5064CFD
:102B8000002504F1100025600CF080FA84F838501C
:102B9000BDE8704005F072BB6838002010B505F044
:102BA0006DFBBDE81040002005F0E2BA10B50078DA
:102BB00000F026FF012001F0CFFABDE8104004F03C
:102BC000C5BF10B50AF06CFF0021BDE8104006201B
:102BD00001F08ABB38B50E48056818200BF008FDD7
:102BE0000C4C00212061284608F082F80BF000FD13
:102BF0000146206953224161C2730A22ADF80020C8
:102C00000A8000210174BDE83840034908F07EB90C
:102C1000F4F700000000002049AE000010B5044C9D
:102C2000204603F06AFBE17EBDE8104004F02EBCB4
:102C3000503200202DE9FF411C4F07F04BF8804631
:102C40000E460CF07FF9D7E90224151A97F84820B0
:102C500064EB010422B1002287F84820154614468F
:102C6000B5EB080274EB06020CD3CDE90201D7E9FB
:102C70000201CDE900010EA3154A40F2591115A039
:102C80000BF0BCFAB8EB0500A64101D200252C469A
:102C9000164E012C03D316A15B2000F059FC04B0A2
:102CA00031462846BDE8F04102F046BF003400201E
:102CB00073665F656E645F74696D653D256C642C39
:102CC0002063757272656E743D256C640A000000A5
:102CD000C01C010064696666203C20626561636F08
:102CE0006E5F706572696F640000000099F2000009
:102CF0002E2F2E2E2F2E2E2F636F6D706F6E656E02
:102D000074732F4D41432F696E636C7564652F6D2D
:102D100061635F74696D652E6800000010B504780A
:102D2000074B04EB440003EBC0011822181DB0311F
:102D3000FDF774FB2046BDE8104004F053BB0000D3
:102D4000503200200C4910B591F88301002281F81F
:102D5000142200EB400001F5B47101EBC000182211
:102D6000B030091DFDF75AFB04F0F0FEBDE810403D
:102D7000012001F0F1B90000E830002070B50446F0
:102D8000064805460CF030F910B128460CF07EF9E3
:102D90002046BDE87040FEF73DBE0000D83100205F
:102DA00038B5054600791A4C00282CD0C0EBC0017C
:102DB00004EBC10191F87810042907D0009015A305
:102DC0001D4A40F26B111DA00BF018FA2879302231
:102DD000C0EBC00104EBC10181F8780028792968B3
:102DE000C0EBC00004EBC0004830FDF717FB2979A9
:102DF0002248C1EBC10104EBC101C865BDE8384000
:102E00000E2006F081BA94F878000428DED038BD90
:102E1000683700207265706F7374696E6720706F19
:102E20006C6C20726571756573742066726F6D20AD
:102E30007372633D25640A00BC1A0100705F6D6502
:102E40006D2D3E7265715B705F696E7465726E6147
:102E50006C5F7265712D3E7372635D2E73726320B9
:102E60003D3D204D41435F504F4C4C5F5245515FBB
:102E70005352435F454D5054590000006D3B0000D4
:102E80001CB5074A0548D2E90112CDE90012D0F875
:102E900060010190684606F065F91CBDE83000202D
:102EA000700B010010B5064CD4F8B00304F56C7437
:102EB00004F044F8206805F0DBFA0020206010BD23
:102EC000E83000207CB5084C002500950195D4F829
:102ED000B00304F56C74019004F030F8684606F015
:102EE00041F925607CBD0000E830002010B503F0FA
:102EF000D3F8002000F084FDBDE8104004F026BEA9
:102F0000002009F03BBDFD2009F0BCBE70B5214D8D
:102F1000064605F5086005F506650CF0B7F81D498D
:102F2000B6F87A00C0F3032081F8890096F87A0099
:102F300000F00F0081F84B0096F87A00C0F3031000
:102F400081F86C00687840F010006870D6F898003E
:102F5000846A0BF0F7FF01460020A14202D2241C34
:102F600040F1FF30C5E912406878010703D520F031
:102F70000700C01C687096F87A000023C0F30312A3
:102F80002046E96C09F04AF8D5E91201BDE8704025
:102F90000AF0A6BEE830002010B5FFF7B7FF012009
:102FA0000BF0A0F8002807D0012004F0D9FCBDE800
:102FB000104001200BF0AEB810BD000010B5134C4E
:102FC00094F8610820F0100084F8610804F50664A4
:102FD00004F0BCFD00200BF085F860B10B48002127
:102FE0002172B0F866006081207820736173092037
:102FF00006F08AF902E0002004F0B2FC00200BF099
:1030000089F8BDE8104001200BF084B8E8300020BA
:1030100010B5084C01200BF099F8607820F01F00E3
:10302000607004F0AFFD06F055FEBDE81040024AA6
:1030300000F0E8BB483900203969000010B504F001
:10304000A1FDBDE81040034A42F21070002100F0DB
:10305000D9BB00003969000010B503480CF016F820
:10306000BDE810400BF028B86839002038B5044698
:10307000154D01200BF036F820B1144940F20D1027
:1030800000F066FA207B8DF800006946002009F008
:1030900019FC072804D00D4940F2111000F058FA2D
:1030A00004F070FD207B2870617B687861F3C300B9
:1030B00020F01700687000200BF048F806F00AFEB8
:1030C000034A00F09FFB38BD48390020301C010046
:1030D0003969000070B5144C94F8610804F5066471
:1030E000400704D111494FF4957000F031FA06F011
:1030F000F1FDD4E91223851841EB0306C4E9125609
:103100006078411E61F302006070314628460AF083
:10311000E7FD01230F223146284608F07FFFBDE876
:10312000704004F013BD0000E8300020301C0100A6
:10313000012001F011B8000070B5054619480BF0E8
:10314000FFFB040009D118494FF4F17000F000FAB8
:10315000154940F2E71000F0FBF9A54204D01249EE
:103160004FF4F47000F0F4F9207EC10703D040F072
:103170000200207670BD20790C4951F8201004F12E
:1031800008000546884709492079103951F8202060
:10319000F02128469047204603F046F8BDE87040ED
:1031A00007F05EBFA83400206014010070FC00002E
:1031B00010B5E52000F024FC012000F0CDFFBDE8B3
:1031C000104004F0C3BC00000448D0F8F023101DE8
:1031D0001178034A52F82120F1211047E8300020ED
:1031E00060FC0000F82009F04DBD032009F0A4BBED
:1031F00010B50446FB2009F09FFB072806D00928DC
:1032000004D0054940F2D11000F0A2F92046BDE8F3
:103210001040FEF7D5BD0000F017010010B5FB20EF
:1032200009F08AFBBDE81040002000F0E9BB000077
:1032300001490120087070470000002070B50F4C54
:103240000F4A0026A06800EB4001401C02EB8105FC
:10325000A060412800D1A6602A7A29680948491C43
:10326000521E02F0BDFE284606F0B6F8064926704A
:103270004FF400400860081F066070BD0000002089
:103280000C040020780000200C05005004F038B930
:1032900010B50AF049FDBDE81040022000F06ABFF9
:1032A00010B50AF041FDBDE81040002000F062BFFB
:1032B00010B5094C02F07CFC002009F02DFF002025
:1032C00084F8CA002046FE2180F82010BDE8104096
:1032D000002009F0BBB90000F839002070B50446A1
:1032E000007F0E46154600280DD010211046FDF730
:1032F000AEF84EB10E2000EB06101038217FC0B2A0
:1033000081420CD8002070BD227F0E2A01D21046C7
:1033100000E00E206A700246A81CA16907E0091AA5
:10332000102900DD1021CAB2A16901442846FDF729
:1033300075F8012070BD08F037B910B50C4608F0DB
:1033400045F92146BDE81040084608F003B970B5BC
:103350000D46012111701446C1680D22601CFDF755
:103360005DF8E573280AA07370BD000010B5094C24
:1033700006E000BF09F056F828B12078401E207002
:1033800020780028F6D109F0AFF8002801D00120FC
:10339000607010BD5034002008F0B4FC08F010FB41
:1033A0000028FBD1104C0121208801EB00400FA127
:1033B00008F0F8FB10480068C00700D000BE208865
:1033C000022101EB00400DA108F0ECFBBFF34F8F91
:1033D0000948E43801680D4A01F4E06111430160D5
:1033E000BFF34F8F00BFFDE7D0020020466174613C
:1033F0006C206572726F7200F0ED00E053797374A7
:10340000656D207265736574000000000400FA05A4
:103410000EB500210091CDE901106A4644F2010089
:10342000FFF7BAFF0EBD00F073BF000010B500201B
:103430005FF0010303FA00F111F4F03F0DD00146F3
:10344000202802D24FF0A04202E0144A00F01F01EF
:1034500002EB81010324C1F80047401C2028E9D376
:103460000F494FF4F03008600020091D08604FF448
:1034700000510C480BF066F80B480AF013FF0A489D
:103480000C300AF00FFF0BF0BBFF00F06BFF0021C8
:10349000BDE81040084600F027BF000000030050C0
:1034A00008050050180700204400002000F002B872
:1034B00000F008B872B602480168491C0160704704
:1034C000BC00002003490868401E086000D162B6B5
:1034D00070470000BC0000202DE9F0410446006860
:1034E00008F09CF92078174F012606FA00F03860A2
:1034F0000021606808F089F91348144D007FA06925
:10350000C5F82405607D217D0843C5F86C05D4E924
:103510000001C5F80C05C5F81415207D01280FD150
:103520000021A06808F071F9E06808F077F9207BC5
:1035300086403E60D4E90201C5F80815C5F81005BB
:10354000BDE8F08108050050C0390020002000408F
:103550001CB56A46ADF800000191002144F202005A
:10356000FFF71AFF1CBD0000024A52F8202008464F
:103570001047000044070100024A52F82020084684
:10358000104700003007010001B56A4602210248D9
:103590000AF0A6FE08BD0000F80100202DE9F04168
:1035A0000A4C0646D4F8E87704F5FD64BD6804F0DB
:1035B000CDFA384603F0C2FC0020206084F83000C9
:1035C0003046AC46BDE8F04160470000E8300020DE
:1035D0000078FF2802D1024890F84A0070470000A6
:1035E000E830002010B5522805D0512807D0BDE89A
:1035F000104009F0ADBBBDE8104004F0A7BA114C73
:1036000094F86820103452B1512009F0A1FB082031
:1036100009F092F9BDE81040062009F08DB909F0D3
:1036200097FB04F15A01532009F092FB04F1700159
:10363000602009F08DFB04F15601502009F088FB51
:10364000D9E70000E830002070B50446007F88B05C
:1036500028B340212079294E305C08B1801E4010EB
:10366000002541EAC00040F001008DF810000095EF
:103670000195029503950D220DF11100E168FCF70B
:10368000CDFE8DF81E50207D8DF81F0004A96846E0
:103690000BF0E4FD6946A068FFF74FFE0BE0002148
:1036A000D8E76D1CEDB204A968460BF0D7FD69465A
:1036B000A068FFF742FE04AA29462046FFF70EFE47
:1036C0000028EED1002509E06D1CEDB204A9684682
:1036D0000BF0C4FD6946A068FFF72FFE04AA294637
:1036E000204609F009F80028EED120796946325CBD
:1036F0002068FCF793FE08B070BD0000F8010100DF
:1037000010B58C1800F13003521CD0B2227802F0B0
:1037100007021A702278C2F3C1025A700A18001DFB
:1037200012685A605A78C0B2012A0AD0022A0DD013
:10373000032A0AD10A18083014689C605268DA60BB
:10374000C0B2095C401C1974C0B210BD0A18001D3B
:1037500012689A60F4E7000010B510F8204F117855
:10376000124B64F302011170447864F3C40121F038
:10377000E00102F8011BD3F8A41042F8041B4178C1
:1037800001290AD002290BD0032905D181681160D3
:10379000C1685160007C107210BD007C107010BDBB
:1037A00081681160007C107110BD0000E8300020BD
:1037B00001B59DF8000020B1054940F22910FFF73E
:1037C000C7FE6A46022103480AF08AFD08BD0000D0
:1037D000C01C0100A402002010B520B1084940F22D
:1037E0005930FFF7B5FE06F0B3FD06F0C3FB06F057
:1037F00031F905F01FF8BDE8104005F013BC0000DA
:10380000501701002DE9F041084F044607F1200050
:1038100016460D4680460BF039FCFE63C7E90C45A1
:103820004046BDE8F0410BF0F9BB000048390020EC
:103830002DE9FF478146106888461F46D0E90410ED
:10384000CDE900101D4D0C9E68460BF079F832E072
:103850003460217A05F1840006F06AFE002823D046
:1038600038603168497ACA0701D0880719E04946AB
:10387000B8F1040F03D0B8F1080F0AD017E002899D
:10388000ADF80820408902ABADF80A0004221846C2
:1038900001E008221030FCF7ECFD40B93068407AB6
:1038A0008007002803DB012004B0BDE8F087214633
:1038B00068460BF09FF80400CAD1F5E7F830002005
:1038C0002DE9F041871C0E4601250020FFF7EEFD93
:1038D000124C20683060D4E90001401AA168091A2E
:1038E000BE1C06E002F0DEFFD4E90001401AA16828
:1038F000091A491C8E42F5D8A1682068084004EBDB
:103900008000C16841F00301C16020683844206034
:103910000020FFF7CDFD2846BDE8F081DC2900201E
:1039200030B482680468531C8360A154D0E901124A
:103930008A4202D330BC07F05EBE30BC7047000044
:10394000034803C8814201D101207047002070471D
:10395000DC2900200022052101480AF0C1BC00003A
:10396000A40200200022012101480AF0B9BC000095
:10397000AC02002070B5084C050009D01034216855
:10398000002907D008682060496828468847F6E77C
:103990000834F4E770BD00009828002010B5134AE1
:1039A0008EB0B2F86630ADF8003003238DF80230E7
:1039B000D2E92042CDE902428DF81030D0E900234F
:1039C000CDE906238DF82010C17A8DF82110017BF6
:1039D0008DF82210D0E90412CDE90A12007E8DF88C
:1039E0003000684607F04CF90EB010BDE8300020FA
:1039F000024981F8EA00012000F090BBE830002085
:103A0000044981F88001012081F87801002000F04C
:103A1000A3BB0000E83000202DE9F0410025441C44
:103A200017460E462846FFF741FD174801683960E2
:103A3000D0E900278368D11B591A491C8C4208D849
:103A4000511C194000EB8105111901600021316002
:103A500009E01F40A74207D913194A1E1A44491EFC
:103A60000260094D31600C35D0E900128068891A76
:103A7000401A401C022800D200250020FFF718FD44
:103A80002846BDE8F0810000DC29002010B504467E
:103A90000BF058FAD4E90223101A63EB010110BDB0
:103AA0002DE9FC471B4E8146144698460F4606F505
:103AB0006A7578200AF09CFD002826D080F81490C2
:103AC0004775B6F85610C182002180F8201000F129
:103AD0006602426290F82920022F22F0030242F08F
:103AE000040280F8292080F8281081600FD0C0E9F6
:103AF000064800BF80F82A10CDE90010684605F09E
:103B000031FB05F108000AF0EFFEBDE8FC870483F5
:103B1000F0E70000F8300020024A52F82020084662
:103B200010470000F0FA0000024A52F82020084630
:103B300010470000D4FA000001B56A460621024889
:103B40000AF0CEFB08BD0000F0010020024A52F846
:103B50002020084610470000F4F80000024A52F8FE
:103B60002020084610470000D8F8000001B56A463A
:103B7000032102480AF0B4FB08BD0000180200202F
:103B800030B521498DB008460223B0F86620ADF863
:103B9000022091F8B2280324103001F50B61012AAC
:103BA0000AD0B0F850204FF6FE75AA4208D28DF820
:103BB0000030ADF8082009E000228DF8002005E073
:103BC0008DF80040D0E91225CDE9022509780229B7
:103BD00016D08DF8104000BF10F8981F8DF81810FF
:103BE00041788DF81910D0E90212CDE90812007C55
:103BF0008DF828000021684605F0CAFD0DB030BDE3
:103C00008DF81030E8E70000E83000200B4810B5D0
:103C100090F8E90018B1BDE810400AF04DB908F07D
:103C20008DFD04284FF0000205D00321BDE81040AF
:103C300003480AF055BB0221F8E70000E8300020F5
:103C40006801002013460A4600F108011846FCF7F7
:103C5000E5BB13460A46011D1846FCF7DFBB000012
:103C60002DE9F041144D0600D5F8300805F503653F
:103C70008046876800F1100401D0E92E05D190F844
:103C80003000022801D109F08DFF2868408C608047
:103C9000286890F8200060702968D1E90A01C4E919
:103CA0000201267000202860404603F047F92046B4
:103CB000BC46BDE8F0416047E8300020024A52F8B7
:103CC00020200846104700002C080100024A52F844
:103CD00020200846104700001408010070B5002598
:103CE00088B004462E461BE0761CF6B26A46314682
:103CF0002046FFF72CFB6946A068FFF71EFB6946CC
:103D000004A80BF0ABFA207D401B102800DD10202A
:103D1000C2B2206904A92844FCF780FB1035EDB23B
:103D200004AA3146204608F0E7FC0028DCD12079BF
:103D30000E4D285C002816D06A4600212046FFF769
:103D400006FB6946A068FFF7F8FA00206A4606E01D
:103D50002168165C0B5C73400B54401CC0B2217987
:103D6000695C8142F4D808B070BD0000F801010020
:103D7000F0B51E48D0F8D4100B784F788C78CD78F9
:103D8000C4F30116C7F3401107F00702C4F381041E
:103D900080F8C9100021C830012A02D0032A00D0BF
:103DA0004170052B00D84170012E00D94170437835
:103DB0000F4E012233B10F4B34B1022C06D0032C2D
:103DC00006D041703262F0BD302102E0402100E0B7
:103DD00070211960084905230B70CD701223A1F8DA
:103DE0000130044B5C3B19600276F0BDF8390020CD
:103DF000001000406015004028010020F0B51B486D
:103E00001B4AD0F8D430A2F11005C83013F8021FB5
:103E1000B5F86660C1F3810C5C889F8859689B681F
:103E20000025BCF1000F17D04FF6FF7E744502D07D
:103E3000A64200D04570BCF1020F06D0D2E91C4268
:103E40006140534019430CD10CE0B2F85A10B9420A
:103E500007D1774505D005E0A64202D192F8781047
:103E600001B94570034901200862F0BDF83900200E
:103E7000F8300020001000402DE9FC41354C09F0DD
:103E8000FFF900250126012833D0022831D003286C
:103E90000FD004280DD009F0F3F92F490968CDE9B6
:103EA00000102EA3394ADA2139A00AF0A7F9BDE89B
:103EB000FC813848006810B1A07840B10DE00020C6
:103EC00009F02AF9BDE8FC41002009F0D5B80BF053
:103ED00039F821696269401A6060607810B1A67093
:103EE0006570E4E7002009F017F9BDE8FC4109F02E
:103EF00009BC607838B128494FF4737001F01CFE9A
:103F00006570A670D3E7A078E668124F4FF00708F7
:103F1000C83FC0B101F04CFE002009F0FDF81F4879
:103F2000D0F85C1151B1D0F8300138B17078000789
:103F300001D5FC2003E087F8208002E0FE2087F80E
:103F40002000A57001E087F82080BDE8FC4100203A
:103F500008F07CBBC03A002050150040556E6578D3
:103F6000706563746564204556454E545F454E4404
:103F70003A20726164696F2066736D2025642C207D
:103F800072616C2066736D2025640000F00E0100E4
:103F90003000000000140040B1320000001000406A
:103FA000074808B590F864018DF8000028B16A460A
:103FB000052104480AF094F908BD00220421F8E71D
:103FC000E830002088020020034810B590F8EA008D
:103FD000FFF7B2FD10BD0000E830002070B50D4CB9
:103FE000D4F87C5104F5B47425B90B4940F29630ED
:103FF000FFF7AEFA267EFF2E04D107494FF4667014
:10400000FFF7A6FA3046A8470020FF21606121761D
:10401000207470BDE8300020F0170100002202215A
:1040200001480AF05DB90000C401002070B5104DD0
:104030000126A5F5C27090F86903002816D12888DA
:10404000002430420DD0002209210A480AF048F924
:10405000288870402880084850F82400BDE8704047
:104060000047641CE4B276000F2CEAD370BD000058
:104070006C320020F0010020F8040100054810B562
:10408000D0F86001406905F003FEBDE81040002053
:1040900008F0F8BDE830002010B500F073F90022F8
:1040A000BDE81040114601480AF01AB96801002025
:1040B000002008F0E7BD00000022062101480AF0B8
:1040C0000FB90000C401002070B5124C04F57075E2
:1040D000D4F8B80304F56E74017E21F00101017675
:1040E00028460AF02DFC0FE00246007E000708D5A6
:1040F0002068904205D00421BDE8704006480AF0CF
:10410000EFB828460AF076FC0100EDD10022052127
:10411000F2E70000E8300020C401002070B5054639
:10412000044C012005F0F0F820780121A940084353
:10413000207070BDD031002070B50546054C0520BB
:1041400005F0E2F894F8F4030121A940084384F84B
:10415000F40370BDE830002070B50546044C032020
:1041600005F0D2F801212068A9400843206070BD05
:104170005032002070B50546044C022005F0C4F80A
:1041800060790121A9400843607170BD4832002068
:104190000349D1F8B0134873042005F0B5B8000006
:1041A000E830002070B50A4C0546D4F8000504F547
:1041B0009E6420B9074940F2C320FFF7C9F920697E
:1041C000032145732269BDE8704003480AF088B8AE
:1041D000E830002018140100B8010020024A52F80B
:1041E00020200846104700007CFB0000024A52F8DD
:1041F00020200846104700006CFB0000024A52F8DD
:10420000202008461047000088050100024A52F8A5
:104210002020084610470000440501002DE9FC411C
:104220000446DFF8AC80694606F0B6FC0646A06B93
:1042300008F5AC75871B206C18B926498120FFF75B
:1042400087F96078B61CC0F3C000A876206CAF6018
:10425000686194F83C0030442873607800F00100F5
:1042600028716078800968766078C0F30010687102
:10427000204609F0B5FDE876022803D315499220BF
:10428000FFF766F9A17801204FF6FF72022902D1EB
:104290002189914208D061780B0705D4A388934205
:1042A00002D0B0EB911F01D1A87103E098F864101F
:1042B000491CA9716178890603D505F8E00F2089AA
:1042C00068806A463946204606F0DAFBBDE8FC8184
:1042D000F830002078130100024A52F820200846E6
:1042E0001047000028F80000084A10B50123D478D0
:1042F00083402343D370243252F820200AB1084669
:104300009047BDE8104003200AF0AABD000000203D
:1043100070B500240E4D012606FA04F0E978C0B20B
:10432000014207D041400A48E9700022214614307A
:1043300009F0D6FF641CE4B2072CEDD3E87800281E
:1043400004D0BDE8704003200AF08ABD70BD0000B3
:1043500000000020024A52F82020084610470000C2
:1043600014F8000010B5054905480AF035F804486E
:10437000002114388160C16010BD000004F8000005
:1043800014000020084890F8E91031B1007D30B1E8
:1043900006494FF43970FFF7DBB8054901E00449DD
:1043A000103104480AF018B8E83000203413010036
:1043B0000CFB000068010020044890F84B000F2817
:1043C00001D000207047012070470000E830002035
:1043D000054810B590F8880008B1002010BD06F01F
:1043E0001FF880F0010010BDE830002070B50AF021
:1043F000A9FD04460D4609F0D9FC22462C46151AA3
:1044000064EB010409F0B8F9421B71EB040208D314
:10441000401B61EB04014FF4FA72801A71F1000045
:1044200001D2012070BD002070BD70B50AF08AFD78
:1044300004460D4609F0BAFC22462C46151A64EBD8
:10444000010409F099F9401BA14101D2012070BD7E
:10445000002070BD064810B5D0F8C004407B20B9DC
:10446000FFF7E3FF08B1012010BD002010BD0000E0
:10447000E83000200A4810B5D0F8C0146FF07F442F
:1044800000200A69A21A70EB000305D3496923468C
:104490000022591A824101D2012010BD002010BD16
:1044A000E8300020094810B5D0F8C04405F012FCEF
:1044B000000940EA0170D4E9041220F07F40114461
:1044C000884201D8012010BD002010BDE830002036
:1044D0000448D0F8C004406908B1002070470120AA
:1044E00070470000E830002010B50246012000218E
:1044F000FBF76FFF401EC4B2FBF77EFF204000EBCE
:1045000080008001002110BD10B5822811D006DC8A
:1045100071280ED073280CD0752804D109E08328A7
:1045200007D0842805D00449B120FFF711F80020F6
:1045300010BD084610BD0000D40F0100416821F0F5
:104540000101091F40587047024A52F820200846CE
:1045500010470000B4080100024A52F82020084623
:1045600010470000940801002DE9F0410E4E8768C5
:104570008846044600F10C0527B90C494FF4FA703F
:10458000FEF7E6FFA07BC1064FF0000001D4B0604B
:1045900000E0F06085F80180A07B28702846BC46CA
:1045A000BDE8F04160470000D83500202C1A01001A
:1045B000024A52F82020084610470000B8FB0000CD
:1045C000024A52F82020084610470000DCFB000099
:1045D00000220221014809F083BE0000B80100203A
:1045E0002DE9F84F394E00F07DFA009006F11804DD
:1045F00096F8410000F0B0F90546FF2819D0009860
:10460000007800F00F00A84204D831494FF4F77049
:10461000FEF79EFF0AF096FC82462E48894690F8E7
:10462000880090B1012005F017FE834688460120DE
:1046300011E096F84100009027A3254A40F2E911C5
:1046400033A009F0DBFDBDE8F88F002005F004FE83
:1046500083468846002005F01FFE009905EB4502C1
:104660000223496803EBC202895C3C2201F00F017E
:10467000A1FB023102461846FBF7ABFE06010027FC
:104680002946009801F090FE18B12248361847F1EB
:10469000FF371BEB060648EB0705BAEB060179EB83
:1046A000050004D30A4940F20B20FEF751FFB6EB98
:1046B0000A0165EB0905C4E90415002020761648B7
:1046C000E0612046BDE8F84F0AF0A8BCD8350020CC
:1046D00018140100E83000204E6F206D6F726520C5
:1046E000616C6C6F6361746564204754532064652A
:1046F0007363726970746F7273206166746572207F
:104700006375725F64657363723D25750000000018
:10471000300000007CFCFFFFD14500002DE9F04196
:104720001E4C064604F1100194F8380504F5A76400
:1047300000F00F070B2F02D30020BDE8F081B07806
:1047400020F00F05B57091F87900B0EB151F12D964
:10475000A0EB151808F10100C0EB0010002391F840
:104760005C2080001946FBF734FEB0F5DC7F02D3F5
:1047700068F30305B570606807EB470100EBC10003
:1047800018223146FBF74AFE20784FF0805101EBAA
:1047900030104FEA307020700120CEE7E830002062
:1047A0002DE9F041154D044695F8380505F5A76546
:1047B00000F00F00A04204D8114940F22B30FEF760
:1047C000C7FE18270CE000BF04EB44006A6807EB43
:1047D000C001114402EBC0001822FBF71FFEF4B227
:1047E0002878661C00F00F00B042EDD82878411EF2
:1047F00061F303002870BDE8F0810000E83000207C
:10480000181401002DE9F84F4FF00008DFF8F8A068
:1048100081460AF5A5664546474644464FF0040BD7
:104820001EE000BF04EB4400726800900BEBC00078
:10483000105C03F0F4FF88B100987268052101EB69
:10484000C000105C00284FF0010000FA07F002D011
:104850002843C5B200E085437F1CFFB2641CE4B26C
:10486000307800F00F00A042DCD848469AF8531088
:1048700067F3020061F3C71008F1010409F80800AA
:1048800017B109F80450641C00254FF0020A2FE00C
:1048900005EB450771680BEBC700085C804603F029
:1048A000BEFF18B3706830F83710ADF800100AEB8F
:1048B000C701425C9DF80200110961F307108DF8F1
:1048C0000200B8F1020F1BD0B8F1010F18D020F090
:1048D0000F0000BF8DF8020009EB0400BDF80010C6
:1048E00001809DF80210E41C8170E4B26D1CEDB2F1
:1048F000307800F00F00A842CAD82046BDE8F88FF3
:1049000062F30300E6E70000F830002070B5114DB7
:1049100005F59E6400F0E6F895F88810002912D09D
:1049200094F84110406801EB4101052202EBC102FD
:10493000825C002A07D194F84730032223B102EBAE
:10494000C1010023435470BD02EBC102815C491CCC
:10495000815470BDE830002070B5044600F0C2F804
:10496000641E0546E4B204260DE000BF04EB4401DA
:10497000686806EBC101405C03F040FF08B12046C7
:1049800070BD641EE4B2287800F00F00A042EDD89C
:10499000FF2070BD10B500F0EBF8FFF7B7FF002265
:1049A000BDE810400221014809F09ABCB80100207E
:1049B0002DE9F05F454D00F095F8064695F8410069
:1049C000317805F1180401F00F01A5F59C688842C3
:1049D00004D33F4940F22120FEF7BAFDDFF8F4A0EE
:1049E0009AF8880000B1012005F056FC074695F8BA
:1049F00041004FF0020B00EB40020BEBC20071686C
:104A00003A46085C3C210009A0FB0101FBF7E1FCF0
:104A100000014FF00009C4E9040995F8411030463F
:104A200001F0C2FCA0B995F841003178401C01F0BA
:104A30000F0188420CD2C1B2304601F0B5FC38B14A
:104A4000D4E904022449411842F1FF30C4E90410BA
:104A500095F841003178401C01F00F0188420ED1D9
:104A60009AF8880058B998F83B00B84207D1D4E9C1
:104A700004011A4A801841F1FF31C4E9040198F891
:104A80005C1098F83B00814217D195F8410071689D
:104A900000EB40020BEBC200085C00F00F0101EBE1
:104AA0001010102809D105F053F90146D4E904305B
:104AB000591A60EB0900C4E9041084F818900848FA
:104AC000E0612046BDE8F05F0AF0A8BAD8350020C2
:104AD00018140100E83000207CFCFFFF3BF6FFFFCC
:104AE000954900000748A0F59E6191F8881009B12A
:104AF000002100E0012180F84010C9B200EBC100A4
:104B000048307047D83500202DE9F0410024054693
:104B1000164F012623E000BF05EB8400B7F85A20AA
:104B20008188914219D180790107E97806FA04F267
:104B300001EA020109D009B1012200E000220109C5
:104B400000F00F0003F05AFD07E009B1012200E078
:104B500000220109012003F0A5FD641CE4B2A8783D
:104B600000F00700A042D7D8BDE8F081F83000205F
:104B700070B5134D05F59E64FFF7B4FF95F88810E6
:104B8000002915D094F84110406801EB410105223D
:104B900002EBC102825C012A0AD194F8463003225A
:104BA00013B194F8453023B102EBC1010023435403
:104BB00070BD02EBC102815C491C815470BD0000D4
:104BC000E830002070B50B78037001225B0702D03B
:104BD0004A7842700222002313E000BF8C1800EBD9
:104BE00083052488921C6C80D2B22E798C5C521C76
:104BF00064F30306240964F307165B1C2E71D2B21A
:104C0000DBB2047804F007049C42E7D8104670BD7C
:104C10000548B0F86A00A0F57F41FF3901D00020B7
:104C20007047012070470000E830002001F042BFCB
:104C30000148807C70470000E830002010B5124821
:104C400088B02022D0F8604110496846FBF7E6FBA7
:104C500004F118000190401C03900B380590801C53
:104C600007900421684605F0F7FF58B90648217FF0
:104C7000103021B1A17E11B990F87A0010B1002056
:104C800008B010BD0120FBE7E8300020D80B010080
:104C9000F0B5D0E9002100208C78174B012504F0F5
:104CA000070624E001EB8004B3F85AC034F8047F0F
:104CB00067451AD1CF7805FA00FC17EA0C0700D037
:104CC000012792F80EC0CCF3001C67450DD1907BF4
:104CD000A17800F00F03B3EB111F01D10120F0BD4B
:104CE000090961F30300907303E0401CC0B28642DF
:104CF000D8D80020F0BD0000F8300020F0B5D0E991
:104D0000003100208C780F4A012504F0070415E0DB
:104D100001EB8006B2F85A70B688BE420CD1CE784C
:104D200005FA00F73E4000D001269F7BC7F300172D
:104D3000BE4201D10020F0BD401CC0B28442E7D881
:104D40000120F0BDF830002070B50546094CFFF792
:104D5000D5FF00280BD02868A168884202D194F8BA
:104D6000420001E094F84300042801D9012070BDFD
:104D7000002070BDD835002010B5094CA4F5B470E2
:104D800090F8880048B905F04BFB30B9A07E20B9F7
:104D900094F8AC0008B1012010BD002010BD000047
:104DA00050320020094810B5A0F5B47191F8881070
:104DB00049B990F8AC1031B9807E20B905F00EFBEE
:104DC00008B1012010BD002010BD000050320020AD
:104DD000044890F84B000F2801D0012070470020B4
:104DE00070470000E8300020034890F8000208B146
:104DF0000020704701207047E8300020054910B5B9
:104E000091F84B100F2903D0FFF7B6FF002800D010
:104E1000012010BDE8300020002800D0012070479C
:104E20000948D0F8B003417D02290AD1018BA1F5D0
:104E30007F42FF3A05D190F82900C00701D0012038
:104E40007047002070470000E830002000780649D5
:104E5000022807D191F8780020B191F8530008B1E9
:104E60000120704700207047F830002000780028AB
:104E700000D0012070470078002800D00120704742
:104E8000044890F80002032801D000207047012058
:104E900070470000E8300020007802F0DBBA10B55F
:104EA0000078012804D105F0ABFA08B1012010BD4B
:104EB000002010BD0078012800D000207047007845
:104EC000022801D00020704701207047084890F860
:104ED0001811E83000EB411090F83A10491E11F01B
:104EE000FF0180F83A1001D0002070470120704780
:104EF000E8300020034890F80002012800D000208C
:104F000070470000E830002070B50D48002190F88F
:104F10001851E83000EB4514206C05F0E7FBA18F39
:104F200044184FF4FA70002105F0E0FB14302044DF
:104F300080B2294604F02AFF80F0010070BD000015
:104F4000E83000200848D0F8B013103091F829104C
:104F50008A0706D490F8780018B1480701D40120D8
:104F60007047002070470000E830002030B590F80E
:104F700020300D4A0021022B02D0032B09D010E073
:104F8000038DB2F8502093420BD000BF90F831103F
:104F900007E0D0E90A34D2E912526B40544023436F
:104FA000F4D1084630BD0000F83000200E4A438C92
:104FB0000021B2F866209A4200D0012190F820200A
:104FC000022A07D1028DA2F57F43FF3B01D05B1C73
:104FD00000D1012190F83000012802D0022800D031
:104FE0000121084670470000E8300020012070478A
:104FF0000079002800D0012070470000044890F894
:1050000074017F2801D901207047002070470000FB
:10501000E8300020084810B590F81811E83000EB8F
:10502000411494F83900FFF75FFA2064BDE810409E
:105030000020FFF769BF0000E83000200648D0F8E4
:10504000B00390F82910890702D5407D022801D0CD
:105050000020704701207047E83000202DE9F04122
:10506000214CFFF73FFD074694F83105FFF774FC2C
:105070000646FF2835D0204690F8880030B1012040
:1050800005F0EAF805460C46012005E0002005F091
:10509000E3F805460C46002005F0FEF806EB460254
:1050A0000223796803EBC202895C3C2201F00F0104
:1050B000A1FB023102461846FBF78BF906010027D7
:1050C00009F040FF024608464FF46171511840F163
:1050D0000000AA197C41891AA04102D20120BDE832
:1050E000F0810020FBE70000E83000200068807BB2
:1050F000C0F34010704700680121807B21EA501006
:10510000704700000648B0F86A00A0F57F41FF39FB
:1051100003D0491C01D000207047012070470000D7
:10512000E830002070B5094DFFF7DCFC044695F827
:105130003105FFF711FC0146FF2804D02046BDE8E9
:10514000704001F031B9002070BD0000E83000204F
:1051500010B50B4C94F8480204F5B47400280ED036
:10516000B4F8E20003F01AFB002808D0204601F052
:10517000C4F80C30BDE8104080B203F003BD10BD90
:10518000E8300020407BE22801D000207047012059
:105190007047407BE92801D000207047012070470C
:1051A000407B0949E9280CD1A1F59E6090F8742054
:1051B00011F8440F401CC0B20870824201D2012095
:1051C0007047002070470000D835002070B5174D9B
:1051D000FFF788FC044695F841002178A5F59C6608
:1051E00001F00F01884204D311494FF4D670FEF745
:1051F000AFF995F84100626800EB4001052000EB33
:10520000C100105C78B1002096F878300BB180F0C6
:105210000100002806D032F8310003F007F9002819
:1052200000D0012070BD0120EEE70000D83500203D
:105230001814010070B5094DFFF754FC044695F8A9
:105240003105FFF789FBFF2806D00146204601F013
:10525000ABF880F0010070BD002070BDE830002088
:1052600010B50446FFF7E6FF002807D02046FCF7FC
:10527000E5FE2046BDE81040FFF7A8BF10BD03F0D3
:105280008DB800000748D0F8B00390F829104A07FD
:1052900005D5407D18B1880701D401207047002052
:1052A00070470000E83000200C4910B5084690F81F
:1052B0001821E83000EB4214002004F8380F91F870
:1052C000650060700220A0706078FFF70DF9A060A3
:1052D000BDE810400020FFF717BE0000E8300020B6
:1052E0000749084690F81821E83000EB42100022E8
:1052F00000F8382F91F865104170012070470000C8
:10530000E8300020014809F06FBE00007032002034
:105310000848D0F8B003017D09B9417D31B190F85A
:105320002910890704D5407D022801D0012070474B
:1053300000207047E8300020074810B5D0F8B0438F
:105340000020FFF77BFE18B1204603F045FC08B1B2
:10535000002010BD012010BDE8300020114810B51C
:10536000D0F8E84786B094F82900C0B118220E4959
:105370006846FBF753F804F130000190801F03905A
:10538000801E059094F82900032802D14A208DF848
:1053900000000321684605F05FFC002800D00120D2
:1053A00006B010BDE830002084070100827A008931
:1053B0004FF6FF7112B1884204D101E0884201D05A
:1053C00000207047012070470078002800D001209D
:1053D00070470000034890F86108400700D00120A2
:1053E00070470000E8300020002800D001207047FE
:1053F000114A10B5104690F81811E83000EB411131
:10540000022081F83A0091F8390092F87130441C7A
:10541000383110329C4201D2401C00E018464870DE
:105420000878401CC0B2087092F85410884201D924
:10543000012010BD002010BDE8300020044890F885
:105440004B000F2801D0002070470120704700005A
:10545000E8300020034890F88101012800D00020A6
:1054600070470000E8300020054890F84B1090F895
:105470006C00814201D1012070470020704700007C
:10548000E830002007480749D0F860011031007F5C
:1054900028B991F83B000F2801D001207047002067
:1054A00070470000E830002007480749D0F8600145
:1054B0001031007F18B991F83B000F2801D000206F
:1054C0007047012070470000E83000200548D0F800
:1054D0006001017F19B9406908B1012070470020BF
:1054E00070470000E8300020044890F84B000F2877
:1054F00001D000207047012070470000E8300020F4
:1055000002F04CBF0348D0F8580308B100207047A0
:1055100001207047E83000200E4890F8701700F521
:10552000D060C1EBC10100EBC1004FF6FF71B0F8D4
:105530004A2048308A4209D00278022A08D10089DC
:10554000A0F57F42FE3A01D0884201D10120704788
:1055500000207047E8300020044901F5EF6103C9DD
:10556000084301D00120704700207047E830002038
:10557000014890F868007047E83000200148407802
:1055800070470000000000200648064990F881019D
:1055900091F86E1119B1012801D001207047002047
:1055A00070470000E830002010B50020FFF7ECFF46
:1055B00028B10020FFF7F6FB08B1012010BD002044
:1055C00010BD0078012803D0062801D000207047C4
:1055D000012070470348C07C08B1002070470120BB
:1055E00070470000E830002000F0B0BE70B50948F8
:1055F0000025D0F8801790F8882701204C6A2946AA
:10560000521CFAF7E6FE201A8D4101D2012070BD2E
:10561000002070BDE8300020074910B5D1F8804760
:1056200000F094FE30B1207D94F82910884201D317
:10563000012010BD002010BDE830002010B5017819
:10564000E12904D1FFF7D2FF08B1012010BD0020ED
:1056500010BD10B50178E12902D1FFF7C7FF08B1ED
:10566000002010BD012010BD0448D0F8800790F83C
:105670002000012800D0002070470000E830002002
:105680000448D0F8800790F8200008B10020704747
:1056900001207047E83000200448D0F88007406AB5
:1056A00010B10349084000D001207047E8300020C5
:1056B000FF0700F80548D0F8800790F8200003287D
:1056C00001D000207047012070470000E830002022
:1056D0000548D0F8800790F82000022801D000206B
:1056E0007047012070470000E8300020007818B1B2
:1056F000E12801D00120704700207047034840781E
:1057000008B1002070470120704700001C000020F5
:105710000078072801D00020704701207047000062
:10572000094810B5D0F8B8034FF6FF7161F30F02C6
:1057300040B10179054C54F821400221A04708B13D
:10574000012010BD002010BDE830002080FC0000CA
:10575000084808B5017851B14078009006A30EA220
:1057600040F2091111A008F049FD002008BD0120F8
:1057700008BD0000040000204661696C6564207467
:105780006F2073657420617474726962757465202A
:10579000253032780A0000002E2E5C2E2E5C2E2E34
:1057A0005C2E2E5C66736D2E6300000030000000DE
:1057B0000848A0F11001D1F8B013097D022907D1E2
:1057C000B0F85A004FF6FE71884201D301207047AD
:1057D00000207047F83000200548D0F86001817E35
:1057E00021B9017E0F2901D004F002BD00207047CD
:1057F000E830002004F014BE38B5044604F018FE6A
:1058000058B102208DF800002046694601F05EFB89
:1058100018B19DF80000032801D0002038BD0120F8
:1058200038BD0000024890F86108C0F3C00070471E
:10583000E8300020084810B5014690F88800D1F8FB
:10584000604130B904F0F4FD18B9606908B1012075
:1058500010BD002010BD0000E830002010B5092068
:1058600007F06AF8072801D0002010BD012010BD04
:105870000448D0E90210814201D001207047002085
:1058800070470000000000200148007870470000C9
:1058900000000020014890F86D017047E8300020BA
:1058A00038B50C4C002008F01DFC88B1694600207A
:1058B00006F0CCFF072804D0074940F2BF10FDF7DF
:1058C00047FE20789DF80010884201D0012038BDA5
:1058D000002038BD48390020301C0100006880F3EA
:1058E00010887047EFF31081016072B670470000B6
:1058F00010B505F0E3FC002805D0BDE810400249D2
:105900002120FDF725BE10BDA416010005F060BCE6
:1059100010B51949B0F5A27F0CD0B0F5A47F18D00E
:10592000B0F5A67F1AD0BDE8104014494FF4C770F7
:10593000FDF70EBE0868401C0860087D00281AD0DC
:105940000868CA68904216D18868BDE8104000F027
:1059500017B8BDE81040002000F07EB88C6924B96B
:10596000064940F27110FDF7F3FD00F021F9A4465D
:10597000BDE81040604710BDA03900204011010073
:1059800038B504460A2800D20A246846FFF7AAFF61
:105990000948002529460575084800F0BDFD021993
:1059A0000748C0F8485101230221044800F0DEFDF9
:1059B0006846FFF793FF38BDA03900208CF900003E
:1059C000008000407047704770470000094808B5E4
:1059D00001210022016008480368002BFCD0054B20
:1059E0001B1D196002600068009004480068C0B286
:1059F00008BD000000D0004000D1004008D50040A4
:105A0000704700002DE9F84301250020009068460A
:105A1000FFF768FF0E4E37686846FFF75FFFDFF855
:105A2000348000242F420BD06846FFF75BFF3068BC
:105A3000684030606846FFF751FF58F824008047FF
:105A4000641CE4B26D00032CECD3BDE8F8830000C5
:105A5000D8010020FC0101007CB50024054600941B
:105A60006846FFF73FFF0D480121A9400268114336
:105A700001606846FFF732FF019401A8FFF732FF8B
:105A80000748016841F0020101600021072008F089
:105A9000F3FB01A8FFF722FF7CBD0000D801002026
:105AA000500100202DE9F8436846FFF71BFF154E13
:105AB0004FF4A2752946304606F090FA814600213F
:105AC000114800F029FD04462946304606F086FAC2
:105AD000804600210C4800F01FFD0C4E074635683B
